:020000040800F2
:10000000005000204D230008A9200008AF20000860
:10001000B5200008BB200008C12000080000000037
:10002000000000000000000000000000C7200008E1
:10003000D320000800000000DF200008EB200008AB
:10004000952300089523000895230008F92000084F
:100050009523000895230008952300080D2100082A
:100060001B2100089523000895230008952300080C
:100070009523000895230008952300089523000880
:100080009523000895230008952300089523000870
:100090009523000895230008952300089523000860
:1000A00095230008292100089523000895230008BE
:1000B000952300083D2100085121000895230008E0
:1000C0009523000895230008952300089523000830
:1000D0009523000895230008952300089523000820
:1000E00095230008952300089523000800000000D0
:1000F0000000000000000000000000000000000000
:0C01000000000000000000005FF808F1A3
:1001100010B5054C237833B9044B13B10448AFF341
:1001200000800123237010BD0002002000000000A9
:10013000149F000808B5034B1BB103490348AFF3F4
:10014000008008BD0000000004020020149F000889
:10015000034613F8012B002AFBD1181A0138704707
:1001600081F0004102E000BF83F0004330B54FEA68
:1001700041044FEA430594EA050F08BF90EA020FD5
:100180001FBF54EA000C55EA020C7FEA645C7FEA68
:10019000655C00F0E2804FEA5454D4EB5555B8BF8B
:1001A0006D420CDD2C4480EA020281EA030382EAFC
:1001B000000083EA010180EA020281EA0303362D8E
:1001C00088BF30BD11F0004F4FEA01314FF4801C61
:1001D0004CEA113102D0404261EB410113F0004F73
:1001E0004FEA03334CEA133302D0524263EB43032A
:1001F00094EA050F00F0A780A4F10104D5F1200EC8
:100200000DDB02FA0EFC22FA05F2801841F1000122
:1002100003FA0EF2801843FA05F359410EE0A5F1F6
:1002200020050EF1200E012A03FA0EFC28BF4CF027
:10023000020C43FA05F3C01851EBE37101F00045DD
:1002400007D54FF0000EDCF1000C7EEB00006EEBEA
:100250000101B1F5801F1BD3B1F5001F0CD3490874
:100260005FEA30004FEA3C0C04F101044FEA4452CB
:1002700012F5800F80F09A80BCF1004F08BF5FEA52
:10028000500C50F1000041EB045141EA050130BD32
:100290005FEA4C0C404141EB0101013C28BFB1F544
:1002A000801FE9D291F0000F04BF01460020B1FA8F
:1002B00081F308BF2033A3F10B03B3F120020CDA62
:1002C0000C3208DD02F1140CC2F10C0201FA0CF040
:1002D00021FA02F10CE002F11402D8BFC2F1200CA5
:1002E00001FA02F120FA0CFCDCBF41EA0C0190405B
:1002F000E41AA2BF01EB0451294330BD6FEA0404A4
:100300001F3C1CDA0C340EDC04F11404C4F120028E
:1003100020FA04F001FA02F340EA030021FA04F3A0
:1003200045EA030130BDC4F10C04C4F1200220FAF7
:1003300002F001FA04F340EA0300294630BD21FA35
:1003400004F0294630BD94F0000F83F4801306BFFB
:1003500081F480110134013D4EE77FEA645C18BFEF
:100360007FEA655C29D094EA050F08BF90EA020F86
:1003700005D054EA000C04BF1946104630BD91EA7E
:10038000030F1EBF0021002030BD5FEA545C05D181
:100390004000494128BF41F0004130BD14F58004C0
:1003A0003CBF01F5801130BD01F0004545F0FE4134
:1003B00041F470014FF0000030BD7FEA645C1ABF69
:1003C000194610467FEA655C1CBF0B46024650EAA0
:1003D000013406BF52EA033591EA030F41F40021CC
:1003E00030BD00BF90F0000F04BF0021704730B552
:1003F0004FF4806404F132044FF000054FF0000127
:1004000050E700BF90F0000F04BF0021704730B5E7
:100410004FF4806404F1320410F0004548BF4042BC
:100420004FF000013EE700BF42004FEAE2014FEA11
:1004300031014FEA02701FBF12F07F4393F07F4FEC
:1004400081F06051704732F07F4208BF704793F0EF
:100450007F4F04BF41F40021704730B54FF4607402
:1004600001F0004521F000411CE700BF50EA010205
:1004700008BF704730B54FF000050AE050EA0102AE
:1004800008BF704730B511F0004502D5404261EB1E
:1004900041014FF4806404F132045FEA915C3FF45F
:1004A000D8AE4FF003025FEADC0C18BF03325FEAFC
:1004B000DC0C18BF033202EBDC02C2F1200300FAAD
:1004C00003FC20FA02F001FA03FE40EA0E0021FAD2
:1004D00002F11444BDE600BF70B54FF0FF0C4CF4C0
:1004E000E06C1CEA11541DBF1CEA135594EA0C0F72
:1004F00095EA0C0F00F0DEF82C4481EA030621EAAD
:100500004C5123EA4C5350EA013518BF52EA0335E7
:1005100041F4801143F4801338D0A0FB02CE4FF099
:100520000005E1FB02E506F00042E0FB03E54FF0C9
:100530000006E1FB03569CF0000F18BF4EF0010EC1
:10054000A4F1FF04B6F5007F64F5407404D25FEABD
:100550004E0E6D4146EB060642EAC62141EA555170
:100560004FEAC52040EA5E504FEACE2EB4F1FD0CB2
:1005700088BFBCF5E06F1ED8BEF1004F08BF5FEA30
:10058000500E50F1000041EB045170BD06F00046E2
:1005900046EA010140EA020081EA0301B4EB5C048F
:1005A000C2BFD4EB0C0541EA045170BD41F4801187
:1005B0004FF0000E013C00F3AB8014F1360FDEBFAC
:1005C000002001F0004170BDC4F10004203C35DA88
:1005D0000C341BDC04F11404C4F1200500FA05F30B
:1005E00020FA04F001FA05F240EA020001F00042AC
:1005F00021F0004110EBD37021FA04F642EB060122
:100600005EEA430E08BF20EAD37070BDC4F10C044B
:10061000C4F1200500FA04F320FA05F001FA04F20F
:1006200040EA020001F0004110EBD37041F10001FB
:100630005EEA430E08BF20EAD37070BDC4F1200506
:1006400000FA05F24EEA020E20FA04F301FA05F26E
:1006500043EA020321FA04F001F0004121FA04F216
:1006600020EA020000EBD3705EEA430E08BF20EAE6
:10067000D37070BD94F0000F0FD101F00046400020
:1006800041EB010111F4801F08BF013CF7D041EAA2
:10069000060195F0000F18BF704703F000465200A6
:1006A00043EB030313F4801F08BF013DF7D043EA77
:1006B0000603704794EA0C0F0CEA135518BF95EA2D
:1006C0000C0F0CD050EA410618BF52EA4306D1D1B4
:1006D00081EA030101F000414FF0000070BD50EAD3
:1006E000410606BF1046194652EA430619D094EA5D
:1006F0000C0F02D150EA013613D195EA0C0F05D147
:1007000052EA03361CBF104619460AD181EA03019A
:1007100001F0004141F0FE4141F470014FF0000052
:1007200070BD41F0FE4141F4780170BD70B54FF0ED
:10073000FF0C4CF4E06C1CEA11541DBF1CEA13556D
:1007400094EA0C0F95EA0C0F00F0A7F8A4EB05044F
:1007500081EA030E52EA03354FEA013100F0888046
:100760004FEA03334FF0805545EA131343EA12630F
:100770004FEA022245EA111545EA10654FEA0026C4
:100780000EF000419D4208BF964244F1FD0404F57D
:10079000407402D25B084FEA3202B61A65EB0305D9
:1007A0005B084FEA32024FF480104FF4002CB6EB96
:1007B000020E75EB030E22BFB61A754640EA0C0016
:1007C0005B084FEA3202B6EB020E75EB030E22BF56
:1007D000B61A754640EA5C005B084FEA3202B6EB97
:1007E000020E75EB030E22BFB61A754640EA9C0056
:1007F0005B084FEA3202B6EB020E75EB030E22BF26
:10080000B61A754640EADC0055EA060E18D04FEAE3
:10081000051545EA16754FEA06164FEAC30343EA83
:1008200052734FEAC2025FEA1C1CC0D111F4801F50
:100830000BD141EA00014FF000004FF0004CB6E749
:1008400011F4801F04BF01430020B4F1FD0C88BFE8
:10085000BCF5E06F3FF6AFAEB5EB030C04BFB6EBF3
:10086000020C5FEA500C50F1000041EB045170BDE6
:100870000EF0004E4EEA113114EB5C04C2BFD4EB13
:100880000C0541EA045170BD41F480114FF0000E97
:10089000013C90E645EA060E8DE60CEA135594EA13
:1008A0000C0F08BF95EA0C0F3FF43BAF94EA0C0F16
:1008B0000AD150EA01347FF434AF95EA0C0F7FF48B
:1008C00025AF104619462CE795EA0C0F06D152EADF
:1008D00003353FF4FDAE1046194622E750EA4106C3
:1008E00018BF52EA43067FF4C5AE50EA41047FF4D4
:1008F0000DAF52EA43057FF4EBAE12E74FF0FF3C39
:1009000006E000BF4FF0010C02E000BF4FF0010C09
:100910004DF804CD4FEA410C7FEA6C5C4FEA430C82
:1009200018BF7FEA6C5C1BD001B050EA410C0CBFD1
:1009300052EA430C91EA030F02BF90EA020F002033
:10094000704710F1000F91EA030F58BF994208BF9A
:1009500090422CBFD8176FEAE37040F00100704757
:100960004FEA410C7FEA6C5C02D150EA013C07D1AE
:100970004FEA430C7FEA6C5CD6D152EA033CD3D0F9
:100980005DF8040B704700BF8446104662468C46F3
:100990001946634600E000BF01B5FFF7B7FF002826
:1009A00048BF10F1000F01BD4DF808EDFFF7F4FF4F
:1009B0000CBF012000205DF808FB00BF4DF808EDDA
:1009C000FFF7EAFF34BF012000205DF808FB00BFFD
:1009D0004DF808EDFFF7E0FF94BF012000205DF81F
:1009E00008FB00BF4DF808EDFFF7CEFF94BF0120D4
:1009F00000205DF808FB00BF4DF808EDFFF7C4FFCD
:100A000034BF012000205DF808FB00BF4FEA410C15
:100A10007FEA6C5C02D150EA013C0AD14FEA430CF8
:100A20007FEA6C5C02D152EA033C02D14FF0000035
:100A300070474FF0010070474FEA410212F5001273
:100A400015D211D56FF47873B3EB625212D94FEA15
:100A5000C12343F0004343EA505311F0004F23FAFF
:100A600002F018BF404270474FF00000704750EA54
:100A7000013005D111F0004008BF6FF00040704711
:100A80004FF00000704700BF4A0011D212F500126B
:100A900011D20DD56FF47873B3EB62520ED44FEAD6
:100AA000C12343F0004343EA505323FA02F0704756
:100AB0004FF00000704750EA013002D14FF0FF3094
:100AC00070474FF0000070474FEA4102B2F1E04337
:100AD00024BFB3F5001CDCF1FE5C0DD901F0004C25
:100AE0004FEAC0024CEA5070B2F1004F40EB830075
:100AF00008BF20F00100704711F0804F21D113F1A1
:100B00003872BCBF01F00040704741F480114FEAD9
:100B10005252C2F11802C2F1200C10FA0CF320FA62
:100B200002F018BF40F001004FEAC1234FEAD3237F
:100B300003FA0CFC40EA0C0023FA02F34FEA4303E9
:100B4000CCE77FEA625307D150EA01331EBF4FF072
:100B5000FE4040F44000704701F0004040F0FE408D
:100B600040F40000704700BF38B505460C4600222F
:100B7000002328462146FFF721FF28B928462146B1
:100B8000BDE8384000F00AB8284604F1004100F002
:100B900005F8404261EB410138BD00BFD0B50022ED
:100BA0000B4B06460F46FFF797FCFFF76DFF044619
:100BB000FFF718FC0022074BFFF78EFC02460B469E
:100BC00030463946FFF7D0FAFFF75EFF2146D0BD29
:100BD0000000F03D0000F04180B500AF0121084861
:100BE00003F044FE03469AB2064B5A8002210448A1
:100BF00003F03CFE03469AB2024B9A8000BF80BDD0
:100C0000740200200000002080B483B000AF0346CF
:100C1000FB7197F90730002B0CDBFB7903F01F0207
:100C2000074997F907305B09012000FA02F26033A7
:100C300041F8232000BF0C37BD4680BC704700BF81
:100C400000E100E080B582B000AF78607B685A6850
:100C50007B681B881946104601F0E8FE0346002B0E
:100C60000CBF01230023DAB22D4B1A702C4B1B78DA
:100C7000DBB2002B23D07B681B7ADBB283F001034D
:100C8000DBB2002B1BD07B6801221A72254BDB687C
:100C90007A68927AD2431146224A0B40D360214BA4
:100CA0009B687A68527A11461E4A0B4393601E4B2A
:100CB00044F62062DA627B6800221A7321E0184B46
:100CC0001B78DBB283F00103DBB2002B0BD07B6817
:100CD0001B7ADBB283F00103DBB2002B03D0134B92
:100CE00000221A700DE00E4B1B78DBB2002B08D0EF
:100CF0007B681B7ADBB2002B03D03B1D184600F04B
:100D00005FF87B681A88074B5A612820FFF77CFF41
:100D1000282001F0DEFC00BF0837BD4680BD00BFC3
:100D20001C02002000040140000400408903002050
:100D300080B582B000AF78607B681B680122DA72F0
:100D40001A4803F0DAFD7B681B6800221A72184B00
:100D5000DB687A681268927A1146154A0B43D360B1
:100D6000134B9B687A681268527AD2431146104A34
:100D70000B4093600F4B6422DA620E4B00225A62E2
:100D80000D4803F0DDFD0D4B00221A707B681B68D7
:100D90001A88074B5A612820FFF736FF282001F0F8
:100DA00098FC00BF0837BD4680BD00BF4803002047
:100DB00000040140000400400803002089030020D3
:100DC00080B582B000AF78607B681B6801221A731F
:100DD000184803F092FD7B681B6800221A72164BBC
:100DE000DB687A681268927A1146134A0B43D36023
:100DF000114B9B687A681268527AD24311460E4AA8
:100E00000B4093600D4B6422DA620D4803F098FDAD
:100E10000C4B00221A707B681B681A88064B5A61BB
:100E20002820FFF7F1FE282001F053FC00BF08370F
:100E3000BD4680BD4803002000040140000400407E
:100E4000080300208903002080B582B000AF7860DD
:100E50007B681B7ADBB283F00103DBB2002B06D088
:100E6000282001F044FC0A4803F047FD0DE07B68B0
:100E70001B7ADBB2002B07D0282001F038FC3B1D89
:100E80001846FFF755FF00E000BF0837BD4680BD9C
:100E90000803002080B584B002AF78601D4B1B783A
:100EA000002B07D07B681B7843F00803DAB27B681D
:100EB0001A7006E07B681B7823F00803DAB27B68BF
:100EC0001A707B681B7843F00403DAB27B681A70EF
:100ED0000A23009301237A684E210F4801F022FF74
:100EE000052001F0BBFA7B681B7823F00403DAB21B
:100EF0007B681A700A23009301237A684E21064802
:100F000001F010FF052001F0A9FA00BF0837BD4627
:100F100080BD00BF060000202002002080B584B004
:100F200002AF0346FB71FA1D0A23009301234E21F1
:100F3000034801F0F7FE00BF0837BD4680BD00BF83
:100F40002002002080B582B000AF0346FB71FB7920
:100F50001B01FB71114B1B7843F00403DAB20F4BFA
:100F60001A700E4B1B781846FFF7D8FF0B4B1A78F8
:100F7000FB791343DBB21846FFF7D0FF074B1B7812
:100F800023F00403DAB2054B1A70044B1B781846A1
:100F9000FFF7C4FF00BF0837BD4680BD1D0200201B
:100FA00080B584B000AF03460A46FB711346BB719F
:100FB000BB79002B0CD1154B1B7823F00103DAB25F
:100FC000124B1A70114B1B781846FFF7A7FF0BE066
:100FD0000E4B1B7843F00103DAB20C4B1A700B4B2B
:100FE0001B781846FFF79AFF0023FB73FB791B0958
:100FF000FB73FB7B1846FFF7A5FFFB791846FFF74D
:10100000A1FF00BF1037BD4680BD00BF1D020020FC
:1010100080B584B002AF78601A4B1B78002B07D0E4
:101020007B681B7843F00803DAB27B681A7006E02D
:101030007B681B7823F00803DAB27B681A707B6840
:101040001B7843F00403DAB27B681A700A2300931A
:1010500001237A684E210C4801F064FE7B681B78FE
:1010600023F00403DAB27B681A700A230093012389
:101070007A684E21044801F055FE00BF0837BD468E
:1010800080BD00BF060000202002002080B582B095
:1010900000AF3023FB710F2001F0E0F9FB1D184673
:1010A000FFF7F8FE052001F0D9F9FB1D1846FFF700
:1010B000F1FE012001F0D2F9FB1D1846FFF7EAFE10
:1010C0002023FB71FB1D1846FFF7E4FE2023FB7174
:1010D000FB1D1846FFF7DEFE8023FB71FB1D184643
:1010E000FFF7D8FE0023FB71FB1D1846FFF7D2FE69
:1010F0008023FB71FB1D1846FFF7CCFE0023FB711C
:10110000FB1D1846FFF7C6FE1023FB71FB1D18469A
:10111000FFF7C0FE0023FB71FB1D1846FFF7BAFE68
:101120003023FB71FB1D1846FFF7B4FE0023FB7153
:10113000FB1D1846FFF7AEFEC023FB71FB1D1846D2
:10114000FFF7A8FE00BF0837BD4680BD80B584B05C
:1011500000AF0346FB7197F9073023F00F035BB232
:1011600043F009035BB2DBB2FB7307F10F031846D0
:10117000FFF74EFFFB791B015BB243F009035BB243
:10118000DBB2FB7307F10F031846FFF741FF00BF07
:101190001037BD4680BD80B584B000AF78600023B5
:1011A000FB6009E0FB687A6813441B781846FFF778
:1011B000CDFFFB680133FB607868FEF7C9FF02468C
:1011C000FB689A42EED800BF00BF1037BD4680BD15
:1011D00080B584B000AF03460A46FB711346BB716D
:1011E000BB79032B01D90323BB71FB79272B01D9D1
:1011F0002723FB71BB79002B01D1FB79FB73BB79F2
:10120000012B02D1FB794033FB73BB79022B02D156
:10121000FB791433FB73BB79032B02D1FB79543375
:10122000FB7397F90F3003F070035BB263F07F0339
:101230005BB2DBB2BB7307F10E031846FFF7E8FEA3
:10124000FB7B1B01DBB2BB7307F10E031846FFF7F4
:10125000DFFE00BF1037BD4680BD80B584B000AF53
:1012600078600B46FB70FB78DB00DBB25BB243F0CF
:1012700040035BB2DBB200211846FFF791FE00236A
:10128000FB730AE0FB7B7A6813441B780121184644
:10129000FFF786FEFB7B0133FB73FB7B072BF1D94A
:1012A00000BF00BF1037BD4680BD80B582B000AF23
:1012B0000023FB71FB1D1846FFF7ECFD1023FB71AB
:1012C000FB1D1846FFF7E6FD00BF0837BD4680BD91
:1012D00080B582B000AF786000220749786802F0DC
:1012E000E5FE054B9B78002B02D1044B01221A70BE
:1012F00000BF0837BD4680BD8C03002028000020B9
:1013000080B582B000AF0346FB80FB88022B06D17C
:101310000A4B01221A700A48FFF796FD0AE0FB8883
:10132000042B06D1054B02221A700648FFF78CFDEC
:1013300000E000BF00BF0837BD4680BD8903002024
:10134000080000201800002080B500AF01F024F84C
:1013500000F0AEF8FFF740FC00F0B2FA00F004F93C
:1013600000F030F900F010FA00F048F900F096F9BA
:1013700000F058FA642001F071F8FFF787FE00F0E2
:101380000DFC424803F00CFA414B1B686FF0010260
:101390001A61404B1B78DBB2002B03D13E4B1B780C
:1013A000002B40D03D4B1B78002B02D100F0EEFA11
:1013B00033E03A4B1B78012B29D1394B1B7B002B97
:1013C00014D0384B1B78002B14BF01230023DBB251
:1013D00083F00103DBB203F00103DAB2314B1A7080
:1013E0002F4B00221A73304B00221A702D4B1B78A2
:1013F000002B04D000F0AEFC00F08CFC0DE0244883
:1014000003F09EFA0121042000F040FB05E0234B8D
:101410001B78022B01D100F057FB1E4B00221A70E3
:101420001D4B00221A701E4BDB7A002B1BD01D4B6C
:101430001B7883F00103DBB2002B14D0174B1B7811
:101440000133DAB2154B1A70144B1B78022B02D9F8
:10145000124B00221A70124B0022DA72FFF725FF9E
:101460000D4B01221A700E4B1B7ADBB2002B08D1F8
:101470000E4B1B7ADBB2002B03D1094B1B7B002BDD
:1014800087D0054B01221A7083E700BF7402002049
:1014900088020020280000208A0300208803002002
:1014A000080000208B030020B80300201800002053
:1014B00080B594B000AF07F1280328220021184618
:1014C00005F005F907F1140300221A605A609A60CA
:1014D000DA601A613B1D00221A605A609A60DA6075
:1014E0000523BB624FF48033FB6200233B6301237F
:1014F0007B630123BB6302237B644FF48033BB64B3
:101500004FF4E013FB6407F12803184601F010FFC5
:101510000346002B01D000F033FA0F237B61022336
:10152000BB618023FB6100233B6200237B6207F1E8
:1015300014030221184602F07DF90346002B01D066
:1015400000F01EFA01237B604FF48073BB603B1DEB
:10155000184602F007FB0346002B01D000F010FAFA
:1015600000BF5037BD4680BD80B500AF124B134A57
:101570001A60114B124A5A600F4B00229A600E4BB0
:101580000022DA600C4B4FF480421A610A4B0022B1
:101590005A61094B00229A61074B0022DA61064B1F
:1015A00000221A62044801F089FA0346002B01D098
:1015B00000F0E6F900BF80BD20020020005400408A
:1015C000A086010080B500AF0A4B0B4A1A60094B98
:1015D0004FF0FF325A60074B4FF480729A60054813
:1015E00002F036FC0346002B01D000F0C9F900BF21
:1015F00080BD00BF740200200028004080B586B086
:1016000000AF07F1080300221A605A609A60DA609E
:101610003B4600221A605A601E4B1F4A1A601D4B3F
:1016200048F6A0425A601B4B00229A60194BFA22DE
:10163000DA60184B00221A61164B00225A61154BD2
:1016400000229A61134803F02DF90346002B01D0C4
:1016500000F096F94FF48053BB6007F10803194678
:101660000C4803F09FFC0346002B01D000F088F9E2
:1016700000233B6000237B603B461946054804F08D
:101680001DF80346002B01D000F07AF900BF18378F
:10169000BD4680BD88020020002C014080B58EB080
:1016A00000AF07F1280300221A605A609A60DA60DE
:1016B00007F1200300221A605A603B1D00221A60C5
:1016C0005A609A60DA601A615A619A612D4B4FF044
:1016D00080421A602B4B00225A602A4B00229A60EB
:1016E000284B4FF40D52DA60264B00221A61254B2D
:1016F00000229A61234803F0D5F80346002B01D05D
:1017000000F03EF94FF48053BB6207F128031946FD
:101710001C4803F047FC0346002B01D000F030F9D1
:10172000184803F037F90346002B01D000F028F9E0
:1017300000233B6200237B6207F120031946114816
:1017400003F0BCFF0346002B01D000F019F9602321
:101750007B6041F29413BB600023FB6000237B613C
:101760003B1D00221946074803F056FB0346002B99
:1017700001D000F005F9034800F002FC00BF383743
:10178000BD4680BDC802002080B586B000AF07F11D
:10179000080300221A605A609A60DA603B46002211
:1017A0001A605A601D4B1E4A1A601C4B4FF461624E
:1017B0005A601A4B00229A60184B4FF4FA72DA60A2
:1017C000164B00221A61154B00229A61134803F050
:1017D00069F80346002B01D000F0D2F84FF4805393
:1017E000BB6007F1080319460C4803F0DBFB034616
:1017F000002B01D000F0C4F800233B6000237B6085
:101800003B461946054803F059FF0346002B01D01B
:1018100000F0B6F800BF1837BD4680BD08030020B1
:101820000004004080B586B000AF07F10803002235
:101830001A605A609A60DA603B4600221A605A6069
:101840001D4B1E4A1A601C4B48F6A0425A601A4BA8
:1018500000229A60184B0A22DA60174B00221A61A4
:10186000154B00229A61144803F01CF80346002B24
:1018700001D000F085F84FF48053BB6007F10803F6
:1018800019460D4803F08EFB0346002B01D000F0F3
:1018900077F800233B6000237B603B4619460648EF
:1018A00003F00CFF0346002B01D000F069F800BFE5
:1018B0001837BD4680BD00BF480300200008004027
:1018C00080B588B000AF07F1100300221A605A609B
:1018D0009A60DA60274B9B69264A43F010039361B4
:1018E000244B9B6903F01003FB60FB68214B9B6951
:1018F000204A43F0200393611E4B9B6903F02003B1
:10190000BB60BB681B4B9B691A4A43F0040393619D
:10191000184B9B6903F004037B607B68154B9B6944
:10192000144A43F008039361124B9B6903F00803C8
:101930003B603B6806233B610F4B7B610123BB612E
:1019400007F1100319460D4800F0ECFE00220021BB
:10195000072000F0A2FE072000F0BBFE00220021BD
:10196000082000F09AFE082000F0B3FE00BF2037E8
:10197000BD4680BD0010024000002110000801405B
:1019800080B400AF72B600BFFEE7000080B500AFC4
:101990000021052000F020F800F0DAF800F0BEF891
:1019A0000A4B1B78002B02D000F0ECF80BE0002172
:1019B0000A20FFF70DFC064A2721064804F0F0FD37
:1019C0000448FFF7E8FB00BF80BD00BF0000002017
:1019D000309F00089003002080B582B000AF03461E
:1019E0000A46FB711346BB7100222149214802F0CF
:1019F0005DFB1F4B1B78092B07D81D4B1B781E4A1C
:101A000027211E4804F0CCFD06E0194B1B781C4A28
:101A100027211A4804F0C4FDBA79FB79114618460B
:101A2000FFF7D6FB1548FFF7B6FB114B5B78092B88
:101A300007D80F4B5B78134A2721104804F0B0FDFC
:101A400006E00B4B5B78104A27210C4804F0A8FDF8
:101A5000FB790333DBB2BA7911461846FFF7B8FBBE
:101A60000648FFF798FB00BF0837BD4680BD00BFA2
:101A70008C03002074020020349F00089003002093
:101A80003C9F0008409F0008449F000880B500AFBD
:101A900000210220FFF79CFB084A2721084804F098
:101AA0007FFD0748FFF777FB01210420FFF794FF34
:101AB000044B01221A7000BF80BD00BF489F000880
:101AC000900300208A03002080B500AF002102208F
:101AD000FFF77EFB0D490E4804F096FD0C48FFF71A
:101AE0005AFBFFF779F801210420FFF771FB094B3E
:101AF0005B881A46074B9B880749054804F084FD1C
:101B00000348FFF748FB00BF80BD00BF589F000897
:101B10009003002000000020689F000880B500AFFF
:101B200001210020FFF754FB0120FFF70FFB0649BE
:101B3000064804F069FD01210120FFF749FB034835
:101B4000FFF729FB00BF80BD709F000890030020B5
:101B500080B500AF01210C20FFF73AFB0320FFF70F
:101B6000F5FA0649064804F04FFD01210D20FFF764
:101B70002FFB0348FFF70FFB00BF80BD789F0008D5
:101B80009003002080B500AF00210A20FFF720FB62
:101B90000220FFF7DBFA00BF80BD000080B500AF78
:101BA00001210648FFF759FB02210548FFF755FBC5
:101BB00003210448FFF751FB00BF80BDAC9F000824
:101BC000A49F0008B49F000880B582B000AF002237
:101BD00049494A4802F06AFA474B1B78FB71464B69
:101BE0005B78BB71464B1B7883F00103DBB2002BA3
:101BF00076D0444B1B7883F00103DBB2002B35D049
:101C0000414B0022DA72404BDB7A002B0ED13E4B67
:101C10005B683D4A12881146184600F007FF0346EC
:101C2000002B16D1384B1B7B002B12D0FB790133D4
:101C3000FB71FB79182B01D10023FB712E4AFB7934
:101C40001370314B0022DA7200222B492B4802F02C
:101C500095F901210420FFF7BBFA2C4A27212C48D3
:101C600004F09EFC2A48FFF796FA35E0254B1B78D6
:101C7000002B31D0244BDB7A002B0ED1224B5B683A
:101C8000214A12881146184600F0D0FE0346002B68
:101C900016D11D4B1B7B002B12D0BB790133BB71BE
:101CA000BB793C2B01D10023BB71134ABB79537024
:101CB000154B0022DA7200220F49104802F05EF93B
:101CC00001210720FFF784FA104A2721104804F069
:101CD00067FC0F48FFF75FFA094B01221A7006E014
:101CE00001210420FFF778FE054B00221A7000BF87
:101CF0000837BD4680BD00BF8C0300207402002061
:101D0000B9030020B803002018000020809F0008BD
:101D10009003002080B400AF0C4BDB7A002B11D075
:101D20000A4B0022DA720A4B1B78002B14BF0123E6
:101D30000023DBB283F00103DBB203F00103DAB26C
:101D4000034B1A7000BFBD4680BC704708000020DE
:101D5000B803002080B500AF024802F0CEFD00BFFE
:101D600080BD00BF8802002080B485B000AF154B55
:101D70009B69144A43F001039361124B9B6903F082
:101D80000103BB60BB680F4BDB690E4A43F0805315
:101D9000D3610C4BDB6903F080537B607B680A4B9B
:101DA0005B68FB60FB6823F0E063FB60FB6843F06B
:101DB0000073FB60044AFB68536000BF1437BD46E4
:101DC00080BC7047001002400000014080B588B020
:101DD00000AF786007F1100300221A605A609A6021
:101DE000DA607B681B68154A934223D1144B9B69C8
:101DF000134A43F008039361114B9B6903F00803F6
:101E0000FB60FB68C0233B6112237B610323FB6102
:101E100007F1100319460B4800F084FC084BDB69FE
:101E2000074A43F40013D361054BDB6903F4001345
:101E3000BB60BB6800BF2037BD4680BD005400407A
:101E400000100240000C014080B584B000AF786003
:101E50007B681B680F4A934218D101F05DFA0E4B64
:101E6000DB690D4A43F00063D3610B4BDB6903F080
:101E70000063FB60FB68094B01221A60002200210D
:101E8000032000F00AFC032000F023FC00BF103701
:101E9000BD4680BD00280040001002403C04424284
:101EA00080B586B000AF78607B681B68304A93428B
:101EB00014D1304B9B692F4A43F4006393612D4B3F
:101EC0009B6903F400637B617B6900220021192078
:101ED00000F0E3FB192000F0FCFB44E07B681B688A
:101EE000B3F1804F0CD1234BDB69224A43F001034D
:101EF000D361204BDB6903F001033B613B6932E0B6
:101F00007B681B681C4A934214D11A4BDB69194A3F
:101F100043F00203D361174BDB6903F00203FB605C
:101F2000FB68002200211D2000F0B7FB1D2000F0FF
:101F3000D0FB18E07B681B68104A934213D10D4B0D
:101F4000DB690C4A43F00403D3610A4BDB6903F0FD
:101F50000403BB60BB68002200211E2000F09DFB33
:101F60001E2000F0B6FB00BF1837BD4680BD00BF85
:101F7000002C014000100240000400400008004016
:101F800080B588B000AF786007F1100300221A60B6
:101F90005A609A60DA607B681B68B3F1804F17D192
:101FA0000D4B9B690C4A43F0040393610A4B9B69F8
:101FB00003F00403FB60FB6801233B6102237B61A8
:101FC0000223FB6107F110031946044800F0AAFB45
:101FD00000BF2037BD4680BD001002400008014010
:101FE00080B582B000AF78607B681B68234A93425B
:101FF0000BD1234B1B78DBB2012B03D12148FEF719
:1020000021FE02E02048FEF71DFE7B681B681F4A88
:10201000934204D1FFF7D8FD1D4B01221A707B6853
:102020001B681C4A934224D11B4B1B78DBB2002B4C
:102030000AD00021194802F0E1FC174B00221A7067
:10204000134B01221A7014E0154802F079FC0021AC
:10205000124802F04BFD00220121124800F0FDFC65
:102060000C4B1322DA620C4B01221A70084B01222E
:102070001A7000BF0837BD4680BD00BF0004004095
:10208000890300200800002018000020002C0140D7
:102090008A0300200008004029000020C802002018
:1020A000480300200008014080B400AFFEE780B480
:1020B00000AFFEE780B400AFFEE780B400AFFEE7FC
:1020C00080B400AFFEE780B400AF00BFBD4680BC67
:1020D000704780B400AF00BFBD4680BC704780B47D
:1020E00000AF00BFBD4680BC704780B500AF00F0B8
:1020F00099F900BF80BD000080B500AF024802F032
:1021000078FB00BF80BD00BF7402002080B500AF27
:10211000022000F0BBFC00BF80BD80B500AF0420F2
:1021200000F0B4FC00BF80BD80B500AF024802F0F3
:102130006BFD00BF80BD00BF8802002080B500AFEE
:10214000024802F061FD00BF80BD00BF080300200F
:1021500080B500AF024802F057FD00BF80BD00BF50
:102160004803002080B400AF01231846BD4680BC60
:10217000704780B582B000AF7860396004F0FAFA39
:10218000034616221A604FF0FF3318460837BD4643
:1021900080BD80B582B000AF78604FF0FF317868C5
:1021A000FFF7E7FFFEE780B586B000AFF860B960E3
:1021B0007A6000237B610AE0AFF300800146BB68D0
:1021C0005A1CBA60CAB21A707B6901337B617A69A2
:1021D0007B689A42F0DB7B6818461837BD4680BDA5
:1021E00080B586B000AFF860B9607A6000237B618B
:1021F00009E0BB685A1CBA601B781846AFF3008030
:102200007B6901337B617A697B689A42F1DB7B6889
:1022100018461837BD4680BD80B483B000AF7860E3
:102220004FF0FF3318460C37BD4680BC704780B472
:1022300083B000AF786039603B684FF400525A6059
:10224000002318460C37BD4680BC704780B483B06D
:1022500000AF7860012318460C37BD4680BC70473C
:1022600080B485B000AFF860B9607A60002318468A
:102270001437BD4680BC704780B586B000AF78602B
:10228000144A154BD31A7B617B693B61134B1B6866
:10229000002B02D1114B124A1A60104B1A687B684E
:1022A00013443A699A4207D204F064FA03460C22B6
:1022B0001A604FF0FF3309E0084B1B68FB60074BC7
:1022C0001A687B681344054A1360FB681846183780
:1022D000BD4680BD0050002000040000BC0300206B
:1022E0001005002080B400AF154B1B68144A43F062
:1022F00001031360124B5A681149124B13404B6093
:102300000F4B1B680E4A23F0847323F48033136051
:102310000B4B1B680A4A23F480231360084B5B684D
:10232000074A23F4FE035360054B4FF41F029A60E3
:10233000054B4FF000629A6000BFBD4680BC7047FD
:10234000001002400000FFF800ED00E0002103E073
:102350000B4B5B58435004310A480B4B42189A42CE
:10236000F6D30A4A02E0002342F8043B084B9A42A3
:10237000F9D3FFF7B7FF04F003FAFEF7E5FF704764
:1023800008A4000800000020000200200002002035
:1023900010050020FEE7000080B500AF084B1B6869
:1023A000074A43F010031360032000F06BF90F207D
:1023B00000F008F8FFF7D8FC0023184680BD00BFE6
:1023C0000020024080B582B000AF7860124B1A68DE
:1023D000124B1B7819464FF47A73B3FBF1F3B2FB3F
:1023E000F3F3184600F091F90346002B01D00123C6
:1023F0000EE07B680F2B0AD8002279684FF0FF307F
:1024000000F04BF9064A7B681360002300E00123CB
:1024100018460837BD4680BD2C000020340000203F
:102420003000002080B400AF054B1B781A46054BE6
:102430001B681344034A136000BFBD4680BC70474D
:1024400034000020C003002080B400AF024B1B68A2
:102450001846BD4680BC7047C003002080B584B0DC
:1024600000AF7860FFF7F0FFB8607B68FB60FB6847
:10247000B3F1FF3F05D00A4B1B781A46FB681344A3
:10248000FB6000BFFFF7E0FF0246BB68D31AFA68A3
:102490009A42F7D800BF00BF1037BD4680BD00BFCD
:1024A0003400002080B485B000AF78607B6803F012
:1024B0000703FB600C4BDB68BB60BA684FF6FF0399
:1024C0001340BB60FB681A02BB68134343F0BF6351
:1024D00043F40033BB60044ABB68D36000BF1437C9
:1024E000BD4680BC704700BF00ED00E080B400AF87
:1024F000044BDB681B0A03F007031846BD4680BC8B
:10250000704700BF00ED00E080B483B000AF034629
:10251000FB7197F90730002B0BDBFB7903F01F02EF
:10252000064997F907305B09012000FA02F241F8E9
:10253000232000BF0C37BD4680BC704700E100E09F
:1025400080B483B000AF0346FB7197F90730002BCE
:1025500012DBFB7903F01F020A4997F907305B0988
:10256000012000FA02F2203341F82320BFF34F8FFD
:1025700000BFBFF36F8F00BF00BF0C37BD4680BCEC
:10258000704700BF00E100E080B483B000AF0346B5
:102590003960FB7197F90730002B0ADB3B68DAB230
:1025A0000C4997F907301201D2B20B4483F800238B
:1025B0000AE03B68DAB20849FB7903F00F03043BF9
:1025C0001201D2B20B441A7600BF0C37BD4680BC54
:1025D000704700BF00E100E000ED00E080B489B08A
:1025E00000AFF860B9607A60FB6803F00703FB6135
:1025F000FB69C3F10703042B28BF0423BB61FB69FC
:102600000433062B02D9FB69033B00E000237B6106
:102610004FF0FF32BB6902FA03F3DA43BB681A409A
:102620007B699A404FF0FF317B6901FA03F3D9438C
:102630007B680B40134318462437BD4680BC704767
:1026400080B582B000AF78607B68013BB3F1807FDA
:1026500001D301230FE00A4A7B68013B53600F213D
:102660004FF0FF30FFF790FF054B00229A60044BBC
:1026700007221A60002318460837BD4680BD00BFF8
:1026800010E000E080B582B000AF78607868FFF7B6
:1026900009FF00BF0837BD4680BD80B586B000AFDA
:1026A0000346B9607A60FB7300237B61FFF71EFF6E
:1026B00078617A68B9687869FFF790FF024697F900
:1026C0000F3011461846FFF75FFF00BF1837BD46B1
:1026D00080BD80B582B000AF0346FB7197F907302B
:1026E0001846FFF711FF00BF0837BD4680BD80B513
:1026F00082B000AF0346FB7197F907301846FFF729
:102700001FFF00BF0837BD4680BD80B582B000AF57
:1027100078607868FFF794FF034618460837BD468F
:1027200080BD000080B48BB000AF786039600023BA
:102730007B6200233B6269E101227B6A02FA03F3B8
:10274000FB613B681B68FA691340BB61BA69FB69AE
:102750009A4240F058813B685B689A4A93425ED047
:10276000984A934275D8984A934258D0964A9342D1
:102770006FD8964A934252D0944A934269D8944A69
:1027800093424CD0924A934263D8924A934246D0A5
:10279000904A93425DD8122B2AD8122B59D801A205
:1027A00052F823F01F280008F92700080B2800081A
:1027B0004D28000853280008532800085328000813
:1027C00053280008532800085328000853280008FD
:1027D00053280008532800085328000853280008ED
:1027E000532800085328000801280008152800086D
:1027F000794A934213D02CE03B68DB683B6229E0C6
:102800003B68DB6804333B6224E03B68DB680833E9
:102810003B621FE03B68DB680C333B621AE03B68BD
:102820009B68002B02D104233B6213E03B689B684A
:10283000012B05D108233B627B68FA691A6109E024
:1028400008233B627B68FA695A6103E000233B621C
:1028500000E000BFBB69FF2B01D87B6801E07B680B
:1028600004337B61BB69FF2B02D87B6A9B0002E0CB
:102870007B6A083B9B003B617B691A680F213B69BF
:1028800001FA03F3DB431A40396A3B6901FA03F3A7
:102890001A437B691A603B685B6803F08053002B26
:1028A00000F0B1804D4B9B694C4A43F001039361AA
:1028B0004A4B9B6903F00103BB60BB68484A7B6AD3
:1028C0009B08023352F82330FB607B6A03F003035A
:1028D0009B000F2202FA03F3DB43FA681340FB600C
:1028E0007B68404A934213D07B683F4A93420DD0A5
:1028F0007B683E4A934207D07B683D4A934201D1B0
:10290000032306E0042304E0022302E0012300E0A5
:1029100000237A6A02F0030292009340FA6813439C
:10292000FB602F497B6A9B080233FA6841F8232039
:102930003B685B6803F48033002B06D02D4B1A688C
:102940002C49BB6913430B6006E02A4B1A68BB692C
:10295000DB43284913400B603B685B6803F400339A
:10296000002B06D0234B5A682249BB6913434B60A6
:1029700006E0204B5A68BB69DB431E4913404B609D
:102980003B685B6803F48013002B06D0194B9A68F0
:102990001849BB6913438B6006E0164B9A68BB6904
:1029A000DB43144913408B603B685B6803F40013FE
:1029B000002B21D00F4BDA680E49BB691343CB6063
:1029C00021E000BF00003210000031100000221092
:1029D0000000211000001210000011100010024031
:1029E0000000014000080140000C014000100140BF
:1029F00000140140000401400B4BDA68BB69DB4363
:102A000009491340CB607B6A01337B623B681A68DB
:102A10007B6A22FA03F3002B7FF48EAE00BF00BF67
:102A20002C37BD4680BC70470004014080B485B09F
:102A300000AF78600B467B807B689A687B88134088
:102A4000002B02D00123FB7301E00023FB73FB7B0F
:102A500018461437BD4680BC704780B483B000AFC1
:102A600078600B467B8013467B707B78002B03D00D
:102A70007A887B681A6103E07B881A047B681A6194
:102A800000BF0C37BD4680BC7047000080B582B0E7
:102A900000AF0346FB80084B5A69FB881340002BAC
:102AA00006D0054AFB885361FB881846FEF728FCD0
:102AB00000BF0837BD4680BD0004014080B584B02A
:102AC00000AF78607B68002B01D101231BE17B689C
:102AD00093F83D30DBB2002B06D17B68002283F8EF
:102AE0003C207868FFF772F97B68242283F83D2048
:102AF0007B681B681A687B681B6822F001021A60F9
:102B000000F0EAFFF8607B685B68814A934207D86F
:102B1000FB68804A934294BF01230023DBB206E0A6
:102B2000FB687D4A934294BF01230023DBB2002B54
:102B300001D00123E7E0FB68784AA2FB03239B0C4A
:102B4000BB607B681B685B6823F03F017B681B6888
:102B5000BA680A435A607B681B681B6A23F03F010E
:102B60007B685B686A4A934202D8BB68013309E01C
:102B7000BB684FF4967202FB03F3694AA2FB03237E
:102B80009B0901337A6812680B4313627B681B68E8
:102B9000DB6923F44F4222F0FF027B685B685C49EB
:102BA0008B4219D8FB68591E7B685B685B00B1FBE0
:102BB000F3F3591C40F6FC730B40002B0AD0FB6862
:102BC000591E7B685B685B00B1FBF3F30133C3F311
:102BD0000B0351E004234FE07B689B68002B11D16D
:102BE000FB68581E7B6859680B465B000B44B0FBC2
:102BF000F3F30133C3F30B03002B0CBF01230023BA
:102C0000DBB212E0FB68581E7B6859680B469B00DC
:102C10000B4499000B44B0FBF3F30133C3F30B03F4
:102C2000002B0CBF01230023DBB2002B01D00123BA
:102C300022E07B689B68002B0ED1FB68581E7B68E6
:102C400059680B465B000B44B0FBF3F30133C3F34D
:102C50000B0343F400430FE0FB68581E7B68596880
:102C60000B469B000B4499000B44B0FBF3F301337C
:102C7000C3F30B0343F44043796809681343CB6102
:102C80007B681B681B6823F0C0017B68DA697B687E
:102C90001B6A1A437B681B680A431A607B681B68BF
:102CA0009B6823F4034323F0FF037A6811697A6871
:102CB000D26811437A6812680B4393607B681B6883
:102CC000DB6823F0FF017B685A697B689B691A43C4
:102CD0007B681B680A43DA607B681B681A687B683C
:102CE0001B6842F001021A607B6800221A647B684C
:102CF000202283F83D207B6800221A637B68002233
:102D000083F83E20002318461037BD4680BD00BF23
:102D1000A08601007F841E00FF083D0083DE1B4368
:102D2000D34D621080B588B002AFF8607A601A4661
:102D30000B467B8113463B81FFF786FB7861FB687E
:102D400093F83D30DBB2202B40F0E0807B690093AC
:102D5000192301227049F86800F058F90346002B46
:102D600001D00223D3E0FB6893F83C30012B01D162
:102D70000223CCE0FB68012283F83C20FB681B683F
:102D80001B6803F00103012B07D0FB681B681A685E
:102D9000FB681B6842F001021A60FB681B681A6836
:102DA000FB681B6822F400621A60FB68212283F82A
:102DB0003D20FB68102283F83E20FB6800221A6445
:102DC000FB687A685A62FB683A895A85FB685B8DB2
:102DD0009AB2FB681A85FB68504ADA6279897B6986
:102DE0003A6AF86800F09CF80346002B01D00123F2
:102DF0008DE000233B61FB681B685B693B61FB68FE
:102E00001B689B693B613B6966E07A69396AF868CF
:102E100000F0D2F90346002B0DD0FB681B6C042B8D
:102E200007D1FB681B681A68FB681B6842F40072D4
:102E30001A6001236BE0FB685B6A1A78FB681B6809
:102E40001A61FB685B6A5A1CFB685A62FB685B8DFF
:102E50009BB2013B9AB2FB685A85FB681B8D013B14
:102E60009AB2FB681A85FB681B685B6903F0040370
:102E7000042B1BD1FB681B8D002B17D0FB685B6AF2
:102E80001A78FB681B681A61FB685B6A5A1CFB684E
:102E90005A62FB685B8D9BB2013B9AB2FB685A8514
:102EA000FB681B8D013B9AB2FB681A857A69396A07
:102EB000F86800F0C2F90346002B0DD0FB681B6CCC
:102EC000042B07D1FB681B681A68FB681B6842F477
:102ED00000721A6001231AE0FB681B8D002B94D14D
:102EE000FB681B681A68FB681B6842F400721A6072
:102EF000FB68202283F83D20FB68002283F83E20F7
:102F0000FB68002283F83C20002300E002231846DF
:102F10001837BD4680BD00BF020010000000FFFF53
:102F200080B588B002AFF8607A603B600B467B8169
:102F3000FB68DB6A7B617B69082B06D07B69012B10
:102F400003D07B6913F5803F08D1FB681B681A68C2
:102F5000FB681B6842F480721A600BE0FB681B6B15
:102F6000122B07D1FB681B681A68FB681B6842F4C8
:102F700080721A603B6800937B6800224FF0011159
:102F8000F86800F043F80346002B01D0012335E038
:102F9000FB681B69B3F5804F08D17B89DBB21A4609
:102FA000FB681B6802F0FE021A611BE07B89DB11E3
:102FB000DBB203F00603DBB263F00F03DAB2FB68A7
:102FC0001B681A613B687A680E49F86800F075F86A
:102FD0000346002B01D0012310E07B89DAB2FB68A5
:102FE0001B681A613B687A680749F86800F065F861
:102FF0000346002B01D0012300E0002318461837B8
:10300000BD4680BD080001000200010080B584B00B
:1030100000AFF860B9603B601346FB7125E03B6888
:10302000B3F1FF3F21D0FFF70FFA0246BB69D31A75
:103030003A689A4202D33B68002B16D1FB68002203
:103040001A63FB68202283F83D20FB68002283F886
:103050003E20FB681B6C43F02002FB681A64FB688F
:10306000002283F83C20012323E0BB681B0CDBB269
:10307000012B0DD1FB681B685B69DA43BB68134009
:103080009BB2002B0CBF01230023DBB21A460CE0DD
:10309000FB681B689B69DA43BB6813409BB2002B3B
:1030A0000CBF01230023DBB21A46FB799A42B6D04B
:1030B000002318461037BD4680BD80B584B000AFF0
:1030C000F860B9607A603B6051E0FB681B685B693F
:1030D00003F48063B3F5806F23D1FB681B681A6823
:1030E000FB681B6842F400721A60FB681B686FF48F
:1030F00080625A61FB6800221A63FB68202283F811
:103100003D20FB68002283F83E20FB681B6C43F0E7
:103110000402FB681A64FB68002283F83C20012348
:1031200046E07B68B3F1FF3F21D0FFF78DF90246FF
:103130003B68D31A7A689A4202D37B68002B16D177
:10314000FB6800221A63FB68202283F83D20FB689D
:10315000002283F83E20FB681B6C43F02002FB68D2
:103160001A64FB68002283F83C20012320E0BB683E
:103170001B0CDBB2012B0CD1FB681B685B69DA43CB
:10318000BB6813409BB2002B14BF01230023DBB2AA
:103190000BE0FB681B689B69DA43BB6813409BB27A
:1031A000002B14BF01230023DBB2002B8DD10023A1
:1031B00018461037BD4680BD80B584B000AFF860BA
:1031C000B9607A602DE0F86800F078F80346002BCB
:1031D00001D001232DE0BB68B3F1FF3F21D0FFF701
:1031E00033F902467B68D31ABA689A4202D3BB68A5
:1031F000002B16D1FB6800221A63FB68202283F89B
:103200003D20FB68002283F83E20FB681B6C43F0E6
:103210002002FB681A64FB68002283F83C2001232B
:1032200007E0FB681B685B6903F08003802BCAD151
:10323000002318461037BD4680BD80B584B000AF6E
:10324000F860B9607A602DE0F86800F037F803465E
:10325000002B01D001232DE0BB68B3F1FF3F21D04B
:10326000FFF7F2F802467B68D31ABA689A4202D393
:10327000BB68002B16D1FB6800221A63FB68202272
:1032800083F83D20FB68002283F83E20FB681B6C1E
:1032900043F02002FB681A64FB68002283F83C209C
:1032A000012307E0FB681B685B6903F00403042B40
:1032B000CAD1002318461037BD4680BD80B483B004
:1032C00000AF78607B681B685B6903F48063B3F5CB
:1032D000806F1BD17B681B686FF480625A617B68CA
:1032E00000221A637B68202283F83D207B6800223D
:1032F00083F83E207B681B6C43F004027B681A64F1
:103300007B68002283F83C20012300E0002318465C
:103310000C37BD4680BC704780B400AF034B012220
:103320001A6000BFBD4680BC704700BF20000E423F
:1033300080B586B000AF78607B68002B01D1012397
:1033400072E27B681B6803F00103002B00F08780AA
:10335000924B5B6803F00C03042B0CD08F4B5B6823
:1033600003F00C03082B12D18C4B5B6803F4803301
:10337000B3F5803F0BD1894B1B6803F40033002B5E
:103380006CD07B685B68002B68D101234CE27B68C2
:103390005B68B3F5803F06D1804B1B687F4A43F4DE
:1033A000803313602EE07B685B68002B0CD17B4B75
:1033B0001B687A4A23F480331360784B1B68774A82
:1033C00023F4802313601DE07B685B68B3F5A02FB6
:1033D0000CD1724B1B68714A43F4802313606F4B0E
:1033E0001B686E4A43F4803313600BE06B4B1B6821
:1033F0006A4A23F480331360684B1B68674A23F4DE
:10340000802313607B685B68002B13D0FFF71CF8E8
:10341000386108E0FFF718F802463B69D31A642BBD
:1034200001D9032300E25D4B1B6803F40033002B3A
:10343000F0D014E0FFF708F8386108E0FFF704F86F
:1034400002463B69D31A642B01D90323ECE1534BA9
:103450001B6803F40033002BF0D100E000BF7B6851
:103460001B6803F00203002B63D04C4B5B6803F036
:103470000C03002B0BD0494B5B6803F00C03082BAB
:103480001CD1464B5B6803F48033002B16D1434BB1
:103490001B6803F00203002B05D07B681B69012B1E
:1034A00001D00123C0E13D4B1B6823F0F8027B688B
:1034B0005B69DB00394913430B603AE07B681B69A9
:1034C000002B20D0364B01221A60FEF7BDFF386179
:1034D00008E0FEF7B9FF02463B69D31A022B01D977
:1034E0000323A1E12D4B1B6803F00203002BF0D056
:1034F0002A4B1B6823F0F8027B685B69DB002749D5
:1035000013430B6015E0264B00221A60FEF79CFF68
:10351000386108E0FEF798FF02463B69D31A022B98
:1035200001D9032380E11D4B1B6803F00203002B2C
:10353000F0D17B681B6803F00803002B3AD07B684E
:103540009B69002B19D0174B01221A60FEF77CFFF4
:10355000386108E0FEF778FF02463B69D31A022B78
:1035600001D9032360E10D4B5B6A03F00203002BDA
:10357000F0D0012000F0D8FA1CE00A4B00221A60BB
:10358000FEF762FF38610FE0FEF75EFF02463B691F
:10359000D31A022B08D9032346E100BF00100240D2
:1035A0000000424280044242924B5B6A03F00203F5
:1035B000002BE9D17B681B6803F00403002B00F0AB
:1035C000A6800023FB758B4BDB6903F08053002B37
:1035D0000DD1884BDB69874A43F08053D361854B1B
:1035E000DB6903F08053BB60BB680123FB75824B32
:1035F0001B6803F48073002B18D17F4B1B687E4A35
:1036000043F480731360FEF71FFF386108E0FEF794
:103610001BFF02463B69D31A642B01D9032303E144
:10362000754B1B6803F48073002BF0D07B68DB685C
:10363000012B06D16F4B1B6A6E4A43F001031362E4
:103640002DE07B68DB68002B0CD16A4B1B6A694A52
:1036500023F001031362674B1B6A664A23F00403DD
:1036600013621CE07B68DB68052B0CD1614B1B6A85
:10367000604A43F0040313625E4B1B6A5D4A43F0E9
:10368000010313620BE05B4B1B6A5A4A23F00103F0
:103690001362584B1B6A574A23F0040313627B687A
:1036A000DB68002B15D0FEF7CFFE38610AE0FEF78D
:1036B000CBFE02463B69D31A41F28832934201D9CC
:1036C0000323B1E04B4B1B6A03F00203002BEED047
:1036D00014E0FEF7B9FE38610AE0FEF7B5FE0246D7
:1036E0003B69D31A41F28832934201D903239BE00C
:1036F000404B1B6A03F00203002BEED1FB7D012B34
:1037000005D13C4BDB693B4A23F08053D3617B6896
:10371000DB69002B00F08780364B5B6803F00C03FD
:10372000082B61D07B68DB69022B46D1334B00222A
:103730001A60FEF789FE386108E0FEF785FE024652
:103740003B69D31A022B01D903236DE0294B1B6877
:1037500003F00073002BF0D17B681B6AB3F5803F48
:1037600008D1244B5B6823F400327B689B682149B5
:1037700013434B601F4B5B6823F474127B68196A18
:103780007B685B6A0B431B4913434B601B4B012255
:103790001A60FEF759FE386108E0FEF755FE024652
:1037A0003B69D31A022B01D903233DE0114B1B685F
:1037B00003F00073002BF0D035E0104B00221A60AC
:1037C000FEF742FE386108E0FEF73EFE02463B6926
:1037D000D31A022B01D9032326E0064B1B6803F002
:1037E0000073002BF0D11EE07B68DB69012B07D151
:1037F000012319E0001002400070004060004242C6
:103800000B4B5B68FB60FB6803F480327B681B6AD0
:103810009A4206D1FB6803F470127B685B6A9A4295
:1038200001D0012300E0002318461837BD4680BDB3
:103830000010024080B584B000AF786039607B68CA
:10384000002B01D10123D0E06A4B1B6803F0070372
:103850003A689A4210D9674B1B6823F00702654902
:103860003B6813430B60634B1B6803F007033A6824
:103870009A4201D00123B8E07B681B6803F0020381
:10388000002B20D07B681B6803F00403002B05D0BD
:10389000594B5B68584A43F4E06353607B681B688C
:1038A00003F00803002B05D0534B5B68524A43F4E6
:1038B00060535360504B5B6823F0F0027B689B6859
:1038C0004D4913434B607B681B6803F00103002BD9
:1038D00040D07B685B68012B07D1474B1B6803F422
:1038E0000033002B15D101237FE07B685B68022B3E
:1038F00007D1414B1B6803F00073002B09D1012352
:1039000073E03D4B1B6803F00203002B01D1012340
:103910006BE0394B5B6823F003027B685B683649D8
:1039200013434B60FEF790FDF8600AE0FEF78CFD54
:103930000246FB68D31A41F28832934201D903232D
:1039400053E02D4B5B6803F00C027B685B689B00C7
:103950009A42EBD1274B1B6803F007033A689A425F
:1039600010D2244B1B6823F0070222493B68134303
:103970000B60204B1B6803F007033A689A4201D0A2
:10398000012332E07B681B6803F00403002B08D09E
:10399000194B5B6823F4E0627B68DB6816491343CC
:1039A0004B607B681B6803F00803002B09D0124BA7
:1039B0005B6823F460527B681B69DB000E4913438C
:1039C0004B6000F021F802460B4B5B681B0903F0CB
:1039D0000F030A49CB5C22FA03F3094A1360094B2F
:1039E0001B681846FEF7EEFC002318461037BD464C
:1039F00080BD00BF0020024000100240BC9F0008B4
:103A00002C0000203000002090B48AB000AF294B79
:103A10003C1D0FCB84E80F0040F201233B800023C4
:103A2000FB610023BB6100237B6200237B610023D9
:103A30003B62214B5B68FB61FB6903F00C03042BC9
:103A400002D0082B03D02BE01C4B3B622BE0FB6920
:103A50009B0C03F00F0328333B4413F8243C7B6199
:103A6000FB6903F48033002B12D0134B5B685B0CB3
:103A700003F0010328333B4413F8283CBB617B6906
:103A80000E4A03FB02F2BB69B2FBF3F37B6204E074
:103A90007B690B4A02FB03F37B627B6A3B6202E0B9
:103AA000064B3B6200BF3B6A18462837BD4690BCB8
:103AB000704700BF849F00080010024000127A0087
:103AC00000093D0080B400AF024B1B681846BD469C
:103AD00080BC70472C00002080B500AFFFF7F2FFDC
:103AE0000246054B5B681B0A03F007030349CB5CE6
:103AF00022FA03F3184680BD00100240CC9F000854
:103B000080B500AFFFF7DEFF0246054B5B68DB0ABE
:103B100003F007030349CB5C22FA03F3184680BD88
:103B200000100240CC9F000880B485B000AF7860E0
:103B30000A4B1B680A4AA2FB03235B0A7A6802FB52
:103B400003F3FB6000BFFB685A1EFA60002BF9D13B
:103B500000BF00BF1437BD4680BC70472C0000205A
:103B6000D34D621080B586B000AF786000233B6112
:103B70000023FB607B681B6803F00103002B7DD0F2
:103B80000023FB754F4BDB6903F08053002B0DD1F5
:103B90004C4BDB694B4A43F08053D361494BDB69A3
:103BA00003F08053BB60BB680123FB75464B1B6869
:103BB00003F48073002B18D1434B1B68424A43F433
:103BC00080731360FEF740FC386108E0FEF73CFCB0
:103BD00002463B69D31A642B01D903236DE03A4BAB
:103BE0001B6803F48073002BF0D0364B1B6A03F480
:103BF0004073FB60FB68002B2ED07B685B6803F48E
:103C00004073FA689A4227D02E4B1B6A23F4407304
:103C1000FB602E4B01221A602C4B00221A60294AAD
:103C2000FB681362FB6803F00103002B14D0FEF75E
:103C30000BFC38610AE0FEF707FC02463B69D31A29
:103C400041F28832934201D9032336E01D4B1B6AAF
:103C500003F00203002BEED01A4B1B6A23F44072D0
:103C60007B685B68174913430B62FB7D012B05D111
:103C7000144BDB69134A23F08053D3617B681B68C4
:103C800003F00203002B08D00E4B5B6823F4404284
:103C90007B689B680B4913434B607B681B6803F090
:103CA0001003002B08D0074B5B6823F480027B686D
:103CB000DB68044913434B60002318461837BD46A0
:103CC00080BD00BF0010024000700040400442422E
:103CD00090B58DB000AF7860584B07F10C040FCB56
:103CE00084E80F0040F201233B8100237B62002324
:103CF000FB6200233B620023FB610023BB627B6805
:103D0000102B0AD07B68102B00F28E807B68012B71
:103D100049D07B68022B79D086E0494B5B68FB6118
:103D2000474B1B6803F08073002B7FD0FB699B0C13
:103D300003F00F0330333B4413F8243C3B62FB6930
:103D400003F48033002B17D03D4B5B685B0C03F012
:103D5000010330333B4413F8283C7B62FB6903F4D6
:103D60008033002B0DD0374A7B6AB2FBF3F23B6AFB
:103D700002FB03F3FB6204E03B6A334A02FB03F3FA
:103D8000FB622F4B5B6803F48003B3F5800F02D115
:103D9000FB6ABB624AE0FB6A5B002C4AA2FB03237E
:103DA0005B08BB6242E0264B1B6AFB61FB6903F4C4
:103DB0004073B3F5807F08D1FB6903F00203002B49
:103DC00003D04FF40043BB621FE0FB6903F4407370
:103DD000B3F5007F09D11A4B5B6A03F00203002B95
:103DE00003D049F64043BB620FE0FB6903F4407324
:103DF000B3F5407F1CD1124B1B6803F40033002B3A
:103E000016D04FF22443BB6212E011E0FFF778FEB8
:103E100002460B4B5B689B0B03F0030301335B0013
:103E2000B2FBF3F3BB6204E000BF02E000BF00E0BE
:103E300000BFBB6A18463437BD4690BD949F00084A
:103E40000010024000127A0000093D00ABAAAAAAA5
:103E500080B584B000AF78600023FB607B68002BE6
:103E600001D1012384E07B685B7CDBB2002B05D1B0
:103E70007B6800221A747868FDF7E6FF7B680222EF
:103E80005A74786800F0EAF90346002B04D07B6886
:103E900004225A7401236BE0786800F0A3FA034609
:103EA000002B04D07B6804225A74012360E07B68F5
:103EB0001B685A687B681B6822F007025A607B689F
:103EC0009B68002B05D02C4B1B6B2B4A23F0010366
:103ED0001363294BDB6A23F460727B689B68264975
:103EE0001343CB627B685B68B3F1FF3F03D07B6811
:103EF0005B68FB600EE00120FFF7EAFEF860FB68FC
:103F0000002B04D17B6804225A74012330E0FB6843
:103F1000013BFB607B681B689B6823F00F01FB681B
:103F20001A0C7B681B680A439A607B681B68DB6815
:103F30001B0C1B04FA6891B27A6812680B43D360B9
:103F4000786800F077FA0346002B04D07B680422DF
:103F50005A7401230CE07B680022DA737B6801222B
:103F60005A737B6801229A737B6801225A7400237A
:103F700018461037BD4680BD006C004090B587B034
:103F800000AFF860B9607A6000237B6100233B6179
:103F9000FB68002B02D0BB68002B01D1012380E01D
:103FA000FB681B7C012B01D102237AE0FB68012214
:103FB0001A74FB6802225A747B68002B13D1BB6809
:103FC0001B781A464FF4616303FB02F2BB685B780F
:103FD00019460B461B015B1A9B001344BA68927882
:103FE00013447B611EE0BB681B78184600F067FA3B
:103FF00003461A464FF4616303FB02F4BB685B7827
:10400000184600F05CFA03461A4613461B019B1A39
:104010009B001C44BB689B78184600F050FA03468E
:1040200023447B617969F86800F075F90346002B39
:1040300007D0FB6804225A74FB6800221A7401231B
:104040002FE0FB681B685A68FB681B6822F00502BA
:104050005A60F86800F086F938613B69B3F1FF3FB8
:1040600018D03A697B699A4214D23B6903F5A833A8
:1040700003F5C0733B613969F86800F08CF90346B9
:10408000002B07D0FB6804225A74FB6800221A74C4
:10409000012306E0FB6801225A74FB6800221A74AF
:1040A000002318461C37BD4690BD000080B588B07F
:1040B00000AFF860B9607A600023BB610023FB6148
:1040C00000237B6100233B61FB68002B02D0BB68AF
:1040D000002B01D10123B5E0FB681B685B6803F08E
:1040E0000403002B01D00123ACE0F86800F0E3F8F2
:1040F000B861BB69554AA2FB0323DB0A3B61BA697D
:10410000524BA3FB0213DB0A4FF4616101FB03F383
:10411000D31A4F4AA2FB03235B09DAB2BB685A7079
:10412000BB694A4AA2FB0312D20A4FF4616101FB48
:1041300002F29A1A464BA3FB021359090B461B01C4
:104140005B1A9B00D11ACAB2BB689A703B69172BE5
:1041500055D93B693F4AA2FB03231B097B6139699F
:104160003C4BA3FB01231A0913465B001344DB00FD
:10417000CA1AD2B2BB681A70F86800F0F3F8F86196
:10418000FB69B3F1FF3F08D0FA69BB699A4204D9D1
:10419000FA69BB69D31AFB6102E04FF0FF33FB61A0
:1041A0007B692D4A02FB03F3BA69D31ABB61B96973
:1041B000F86800F0B0F80346002B01D0012341E07D
:1041C000FB69B3F1FF3F0CD0FA69BB691344FB6193
:1041D000F969F86800F0DFF80346002B0AD00123E4
:1041E00030E0F969F86800F0D6F80346002B01D0FA
:1041F000012327E07969F86800F07EF903E03B6964
:10420000DAB2BB681A707B68002B1AD0BB681B78C7
:10421000184600F037F903461A46BB681A70BB68A7
:104220005B78184600F02EF903461A46BB685A70B0
:10423000BB689B78184600F025F903461A46BB6810
:104240009A70002318462037BD4680BDC5B3A291A1
:1042500089888888ABAAAAAA8051010080B584B059
:1042600000AF78600023FB607B68002B01D1012345
:104270001DE07B681B685A687B681B6822F0080297
:104280005A60FEF7E1F8F86009E0FEF7DDF8024653
:10429000FB68D31AB3F57A7F01D9032307E07B6863
:1042A0001B685B6803F00803002BEED00023184660
:1042B0001037BD4680BD80B487B000AF7860002362
:1042C0007B8200233B820023FB8100237B617B6890
:1042D0001B689B697B827B681B68DB69FB817B6851
:1042E0001B689B693B827A8A3B8A9A4208D03B8A48
:1042F0001A047B681B68DB699BB213437B6104E093
:104300007B8A1A04FB8913437B617B6918461C373F
:10431000BD4680BC704780B584B000AF786039601E
:104320000023FB73786800F05DF80346002B02D091
:104330000123FB7311E07B681B683A68120C9A61D9
:104340007B681B683A6892B2DA61786800F072F8AC
:104350000346002B01D00123FB73FB7B184610376B
:10436000BD4680BD80B485B000AF78600023FB817E
:104370000023BB817B681B681B6AFB817B681B6811
:104380005B6ABB81FB891A04BB8913431846143747
:10439000BD4680BC704780B584B000AF786039609E
:1043A0000023FB73786800F01DF80346002B02D051
:1043B0000123FB7311E07B681B683A68120C1A62D8
:1043C0007B681B683A6892B25A62786800F032F8EB
:1043D0000346002B01D00123FB73FB7B18461037EB
:1043E000BD4680BD80B584B000AF78600023FB601F
:1043F000FEF72AF8F86009E0FEF726F80246FB68A7
:10440000D31AB3F57A7F01D903230FE07B681B68C9
:104410005B6803F02003002BEED07B681B685A68B2
:104420007B681B6842F010025A6000231846103760
:10443000BD4680BD80B584B000AF78600023FB60CE
:104440007B681B685A687B681B6822F010025A6000
:10445000FDF7FAFFF86009E0FDF7F6FF0246FB689A
:10446000D31AB3F57A7F01D9032307E07B681B6871
:104470005B6803F02003002BEED0002318461037B2
:10448000BD4680BD80B485B000AF0346FB710023FC
:10449000FB6005E0FB680133FB60FB790A3BFB71C5
:1044A000FB79092BF6D8FB68DBB21B01DAB2FB798A
:1044B0001343DBB218461437BD4680BC704780B446
:1044C00085B000AF0346FB710023FB60FB791B093D
:1044D000DBB21A4613469B0013445B00FB60FB797A
:1044E00003F00F03DAB2FB68DBB21344DBB2184609
:1044F0001437BD4680BC704780B586B000AF786089
:10450000396000237B6100233B610023FB600023B3
:10451000BB607B68DB7B7B617B685B7B3B617B6833
:104520009B7BFB600023BB606FE03B69012B11D0DC
:104530003B69032B0ED03B69052B0BD03B69072B46
:1045400008D03B69082B05D03B690A2B02D03B6998
:104550000C2B17D1FB681E2B03D8FB680133FB60C3
:1045600050E03B690C2B05D03B6901333B610123D3
:10457000FB6047E001233B610123FB607B69013362
:104580007B613FE03B69042B08D03B69062B05D0DB
:104590003B69092B02D03B690B2B0CD1FB681D2B0F
:1045A00003D8FB680133FB602CE03B6901333B61BE
:1045B0000123FB6026E03B69022B23D1FB681B2B08
:1045C00003D8FB680133FB601CE0FB681C2B11D196
:1045D0007B699BB2184600F039F80346002B03D0E4
:1045E000FB680133FB600DE03B6901333B61012354
:1045F000FB6007E0FB681D2B04D13B6901333B6185
:104600000123FB60BB680133BB60BA683B689A4218
:104610008BD37B69DAB27B68DA733B69DAB27B6889
:104620005A73FB68DAB27B689A733B69DBB2FA684B
:10463000D2B21946786900F03BF803461A467B6807
:104640001A7300BF1837BD4680BD000080B483B028
:1046500000AF0346FB80FB8803F003039BB2002BF3
:1046600001D000231DE0FB88104AA2FB031252096F
:10467000642101FB02F29B1A9BB2002B01D00123A3
:104680000FE0FB88094AA2FB0312D2094FF4C8715C
:1046900001FB02F29B1A9BB2002B01D1012300E027
:1046A000002318460C37BD4680BC70471F85EB5170
:1046B00080B485B000AF78600B46FB701346BB70CA
:1046C0000023BB600023FB607B6803F5FA63BB60DB
:1046D000FB78022B2DD8FA7813465B001344DB00DD
:1046E0009B1A2C4AA2FB03235A08BB781A44BB68C6
:1046F0001A44BB68013B9B081A44BB68013B26492E
:10470000A1FB03135B09D21ABB68013B2249A1FB41
:104710000313DB0913441A1D204BA3FB0213D11A08
:1047200049080B4499080B46DB005B1AD31AFB605F
:1047300029E0FA7813465B001344DB009B1A154A04
:10474000A2FB03235A08BB781A44BB681A44BB680F
:104750009B081A44BB681049A1FB03135B09D21ADA
:10476000BB680D49A1FB0313DB0913449A1C0B4BD7
:10477000A3FB0213D11A49080B4499080B46DB002E
:104780005B1AD31AFB60FB68DBB218461437BD46D0
:1047900080BC7047398EE3381F85EB512549922440
:1047A00080B483B000AF78607B68002B01D1012317
:1047B0001AE07B681B7C012B01D1022314E07B688B
:1047C00001221A747B6802225A747B681B681A687B
:1047D0007B681B6842F001021A607B6801225A74F0
:1047E0007B6800221A74002318460C37BD4680BC33
:1047F000704780B582B000AF78607B681B681B682B
:1048000003F00103002B24D07B681B685B6803F076
:104810000103002B1DD07B681B685B6803F0040359
:10482000002B0BD0786800F018F87B681B686FF0DD
:1048300004025A607B6804225A7405E07868FCF729
:1048400047FD7B6801225A747B681B686FF0010288
:104850005A6000BF0837BD4680BD80B483B000AF4A
:10486000786000BF0C37BD4680BC704780B485B00F
:1048700000AF786039600023FB600023BB60084B09
:10488000FB603B689B00FA681344FB60FB681B6895
:104890009BB2BB60BB6818461437BD4680BC7047EE
:1048A000006C004080B582B000AF78607B68002B60
:1048B00001D101231DE07B6893F83D30DBB2002B72
:1048C00006D17B68002283F83C207868FDF7E8FA7F
:1048D0007B68022283F83D207B681A687B6804337A
:1048E0001946104600F046FC7B68012283F83D2003
:1048F000002318460837BD4680BD80B485B000AFA0
:1049000078607B681B68DA687B681B6842F001028C
:10491000DA607B681B689B6803F00703FB60FB6839
:10492000062B07D07B681B681A687B681B6842F0FF
:1049300001021A60002318461437BD4680BC704738
:1049400080B483B000AF78607B681B68DA687B68EE
:104950001B6822F00102DA607B681B681A6A41F268
:1049600011131340002B0FD17B681B681A6A40F2A9
:1049700044431340002B07D17B681B681A687B688F
:104980001B6822F001021A60002318460C37BD464E
:1049900080BC704780B582B000AF78607B68002B28
:1049A00001D101231DE07B6893F83D30DBB2002B81
:1049B00006D17B68002283F83C20786800F015F867
:1049C0007B68022283F83D207B681A687B68043389
:1049D0001946104600F0CEFB7B68012283F83D208B
:1049E000002318460837BD4680BD80B483B000AFB1
:1049F000786000BF0C37BD4680BC704780B584B07E
:104A000000AF786039603B680C2B41D801A252F8A6
:104A100023F000BF494A0008914A0008914A000863
:104A2000914A00085B4A0008914A0008914A000830
:104A3000914A00086D4A0008914A0008914A00080E
:104A4000914A00087F4A00087B681B68DA687B6827
:104A50001B6842F00202DA601BE07B681B68DA68C0
:104A60007B681B6842F00402DA6012E07B681B6816
:104A7000DA687B681B6842F00802DA6009E07B684C
:104A80001B68DA687B681B6842F01002DA6000E09D
:104A900000BF7B681B6801223968184600F0EAFDF8
:104AA0007B681B68104A934207D17B681B685A6C6D
:104AB0007B681B6842F400425A647B681B689B68F1
:104AC00003F00703FB60FB68062B07D07B681B68BD
:104AD0001A687B681B6842F001021A6000231846BE
:104AE0001037BD4680BD00BF002C014080B582B0AC
:104AF00000AF786039603B680C2B41D801A252F8B6
:104B000023F000BF394B0008814B0008814B00089F
:104B1000814B00084B4B0008814B0008814B00087B
:104B2000814B00085D4B0008814B0008814B000859
:104B3000814B00086F4B00087B681B68DA687B6854
:104B40001B6822F00202DA601BE07B681B68DA68EF
:104B50007B681B6822F00402DA6012E07B681B6845
:104B6000DA687B681B6822F00802DA6009E07B687B
:104B70001B68DA687B681B6822F01002DA6000E0CC
:104B800000BF7B681B6800223968184600F072FD80
:104B90007B681B681B4A934217D17B681B681A6AA3
:104BA00041F211131340002B0FD17B681B681A6A66
:104BB00040F244431340002B07D17B681B685A6CBA
:104BC0007B681B6822F400425A647B681B681A6A7F
:104BD00041F211131340002B0FD17B681B681A6A36
:104BE00040F244431340002B07D17B681B681A68CE
:104BF0007B681B6822F001021A6000231846083700
:104C0000BD4680BD002C014080B582B000AF786009
:104C10007B681B681B6903F00203022B22D17B68AF
:104C20001B68DB6803F00203022B1BD17B681B6847
:104C30006FF002021A617B6801221A777B681B6899
:104C40009B6903F00303002B03D0786800F077FA28
:104C500005E0786800F06AFA786800F079FA7B6815
:104C600000221A777B681B681B6903F00403042B7E
:104C700022D17B681B68DB6803F00403042B1BD183
:104C80007B681B686FF004021A617B6802221A7746
:104C90007B681B689B6903F44073002B03D0786822
:104CA00000F04DFA05E0786800F040FA786800F00E
:104CB0004FFA7B6800221A777B681B681B6903F038
:104CC0000803082B22D17B681B68DB6803F008030C
:104CD000082B1BD17B681B686FF008021A617B6888
:104CE00004221A777B681B68DB6903F00303002B3F
:104CF00003D0786800F023FA05E0786800F016FA2F
:104D0000786800F025FA7B6800221A777B681B68B8
:104D10001B6903F01003102B22D17B681B68DB6832
:104D200003F01003102B1BD17B681B686FF010027F
:104D30001A617B6808221A777B681B68DB6903F4B9
:104D40004073002B03D0786800F0F9F905E078682B
:104D500000F0ECF9786800F0FBF97B6800221A7724
:104D60007B681B681B6903F00103012B0ED17B6874
:104D70001B68DB6803F00103012B07D17B681B680C
:104D80006FF001021A617868FDF72AF97B681B68E9
:104D90001B6903F08003802B0ED17B681B68DB68E6
:104DA00003F08003802B07D17B681B686FF08002C3
:104DB0001A61786800F0CFFC7B681B681B6903F000
:104DC0004003402B0ED17B681B68DB6803F0400377
:104DD000402B07D17B681B686FF040021A6178682E
:104DE00000F0BFF97B681B681B6903F02003202BD0
:104DF0000ED17B681B68DB6803F02003202B07D1F2
:104E00007B681B686FF020021A61786800F09AFCDA
:104E100000BF0837BD4680BD80B584B000AFF860E4
:104E2000B9607A60FB6893F83C30012B01D1022312
:104E3000B4E0FB68012283F83C20FB68022283F87F
:104E40003D207B680C2B00F29F8001A252F823F0DA
:104E5000854E0008894F0008894F0008894F0008D7
:104E6000C54E0008894F0008894F0008894F000887
:104E7000074F0008894F0008894F0008894F000834
:104E8000474F0008FB681B68B968184600F0D4F962
:104E9000FB681B689A69FB681B6842F008029A610C
:104EA000FB681B689A69FB681B6822F004029A6120
:104EB000FB681B689969BB681A69FB681B680A4331
:104EC0009A6162E0FB681B68B968184600F01AFA3C
:104ED000FB681B689A69FB681B6842F400629A6170
:104EE000FB681B689A69FB681B6822F480629A6100
:104EF000FB681B689969BB681B691A02FB681B6821
:104F00000A439A6141E0FB681B68B968184600F0E3
:104F100063FAFB681B68DA69FB681B6842F00802E9
:104F2000DA61FB681B68DA69FB681B6822F004021F
:104F3000DA61FB681B68D969BB681A69FB681B6882
:104F40000A43DA6121E0FB681B68B968184600F083
:104F5000ADFAFB681B68DA69FB681B6842F4006203
:104F6000DA61FB681B68DA69FB681B6822F48062FF
:104F7000DA61FB681B68D969BB681B691A02FB68A8
:104F80001B680A43DA6100E000BFFB68012283F876
:104F90003D20FB68002283F83C2000231846103790
:104FA000BD4680BD80B584B000AF786039607B6855
:104FB00093F83C30012B01D10223B3E07B6801223E
:104FC00083F83C207B68022283F83D207B681B68C5
:104FD0009B68FB60FB6823F07703FB60FB6823F4AE
:104FE0007F43FB607B681B68FA689A603B681B68BC
:104FF000B3F5005F3ED0B3F5005F00F28780B3F5F4
:10500000805F00F08580B3F5805F7FD8702B1AD069
:10501000702B7BD8602B50D0602B77D8502B3CD096
:10502000502B73D8402B58D0402B6FD8302B64D0E6
:10503000302B6BD8202B60D0202B67D8002B5CD076
:10504000102B5AD062E07B6818683B6899683B680F
:105050005A683B68DB6800F0EEFA7B681B689B6867
:10506000FB60FB6843F07703FB607B681B68FA68B2
:105070009A604EE07B6818683B6899683B685A689C
:105080003B68DB6800F0D7FA7B681B689A687B682E
:105090001B6842F480429A603BE07B6818683B687A
:1050A00059683B68DB681A4600F04EFA7B681B685B
:1050B0005021184600F0A5FA2BE07B6818683B6881
:1050C00059683B68DB681A4600F06CFA7B681B681D
:1050D0006021184600F095FA1BE07B6818683B6871
:1050E00059683B68DB681A4600F02EFA7B681B683B
:1050F0004021184600F085FA0BE07B681A683B688F
:105100001B681946104600F07CFA02E000BF00E080
:1051100000BF7B68012283F83D207B68002283F872
:105120003C20002318461037BD4680BD80B483B0B4
:1051300000AF786000BF0C37BD4680BC704780B4BC
:1051400083B000AF786000BF0C37BD4680BC7047AD
:1051500080B483B000AF786000BF0C37BD4680BC20
:10516000704780B483B000AF786000BF0C37BD4695
:1051700080BC704780B485B000AF786039607B68D0
:105180001B68FB607B68294A93420BD07B68B3F1B4
:10519000804F07D07B68264A934203D07B68254A1C
:1051A000934208D1FB6823F07003FB603B685B68A7
:1051B000FA681343FB607B681C4A93420BD07B6800
:1051C000B3F1804F07D07B68194A934203D07B68C4
:1051D000184A934208D1FB6823F44073FB603B6894
:1051E000DB68FA681343FB60FB6823F080023B68CE
:1051F0005B691343FB607B68FA681A603B689A68D6
:105200007B68DA623B681A687B689A627B68074A47
:10521000934203D13B681A697B681A637B68012259
:105220005A6100BF1437BD4680BC7047002C014056
:10523000000400400008004080B487B000AF7860F0
:1052400039607B681B6A23F001027B681A627B6805
:105250001B6A7B617B685B683B617B689B69FB6069
:10526000FB6823F07003FB60FB6823F00303FB6023
:105270003B681B68FA681343FB607B6923F00203F9
:105280007B613B689B687A6913437B617B681C4A3E
:1052900093420CD17B6923F008037B613B68DB6898
:1052A0007A6913437B617B6923F004037B617B682C
:1052B000134A934211D13B6923F480733B613B69EC
:1052C00023F400733B613B685B693A6913433B61BC
:1052D0003B689B693A6913433B617B683A695A6052
:1052E0007B68FA689A613B685A687B685A637B6896
:1052F0007A691A6200BF1C37BD4680BC704700BF88
:10530000002C014080B487B000AF786039607B68C2
:105310001B6A23F010027B681A627B681B6A7B6140
:105320007B685B683B617B689B69FB60FB6823F47F
:10533000E043FB60FB6823F44073FB603B681B6841
:105340001B02FA681343FB607B6923F020037B6137
:105350003B689B681B017A6913437B617B681D4A2C
:1053600093420DD17B6923F080037B613B68DB684E
:105370001B017A6913437B617B6923F040037B61E6
:105380007B68144A934213D13B6923F480633B61E9
:105390003B6923F400633B613B685B699B003A69AE
:1053A00013433B613B689B699B003A6913433B6134
:1053B0007B683A695A607B68FA689A613B685A6808
:1053C0007B689A637B687A691A6200BF1C37BD46A6
:1053D00080BC7047002C014080B487B000AF78607B
:1053E00039607B681B6A23F480727B681A627B6871
:1053F0001B6A7B617B685B683B617B68DB69FB6088
:10540000FB6823F07003FB60FB6823F00303FB6081
:105410003B681B68FA681343FB607B6923F40073E5
:105420007B613B689B681B027A6913437B617B68E5
:105430001D4A93420DD17B6923F400637B613B6875
:10544000DB681B027A6913437B617B6923F4806309
:105450007B617B68144A934213D13B6923F48053E8
:105460003B613B6923F400533B613B685B691B0173
:105470003A6913433B613B689B691B013A691343DB
:105480003B617B683A695A607B68FA68DA613B681D
:105490005A687B68DA637B687A691A6200BF1C37D6
:1054A000BD4680BC704700BF002C014080B487B06F
:1054B00000AF786039607B681B6A23F480527B6898
:1054C0001A627B681B6A3B617B685B687B617B68F7
:1054D000DB69FB60FB6823F4E043FB60FB6823F4BB
:1054E0004073FB603B681B681B02FA681343FB6058
:1054F0003B6923F400533B613B689B681B033A699B
:1055000013433B617B680F4A934209D17B6923F4C3
:1055100080437B613B685B699B017A6913437B61D4
:105520007B687A695A607B68FA68DA613B685A6816
:105530007B681A647B683A691A6200BF1C37BD46F3
:1055400080BC7047002C014080B487B000AFF86089
:10555000B9607A60FB681B6A7B61FB681B6A23F099
:105560000102FB681A62FB689B693B613B6923F09F
:10557000F0033B617B681B013A6913433B617B6924
:1055800023F00A037B617A69BB6813437B61FB6884
:105590003A699A61FB687A691A6200BF1C37BD4696
:1055A00080BC704780B487B000AFF860B9607A60A3
:1055B000FB681B6A23F01002FB681A62FB689B6998
:1055C0007B61FB681B6A3B617B6923F470437B61F1
:1055D0007B681B037A6913437B613B6923F0A0035B
:1055E0003B61BB681B013A6913433B61FB687A6905
:1055F0009A61FB683A691A6200BF1C37BD4680BCDD
:10560000704780B485B000AF786039607B689B6874
:10561000FB60FB6823F07003FB603A68FB68134390
:1056200043F00703FB607B68FA689A6000BF143799
:10563000BD4680BC704780B487B000AFF860B960E9
:105640007A603B60FB689B687B617B6923F47F43E6
:105650007B613B681A027B681A43BB6813437A6913
:1056600013437B61FB687A699A6000BF1C37BD46B3
:1056700080BC704780B487B000AFF860B9607A60D2
:10568000BB6803F01F03012202FA03F37B61FB688E
:105690001A6A7B69DB431A40FB681A62FB681A6A64
:1056A000BB6803F01F03796801FA03F31A43FB6830
:1056B0001A6200BF1C37BD4680BC704780B485B0FD
:1056C00000AF786039607B6893F83C30012B01D1E2
:1056D000022332E07B68012283F83C207B680222AF
:1056E00083F83D207B681B685B68FB607B681B68F8
:1056F0009B68BB60FB6823F07003FB603B681B6822
:10570000FA681343FB60BB6823F08003BB603B680F
:105710005B68BA681343BB607B681B68FA685A60B1
:105720007B681B68BA689A607B68012283F83D2019
:105730007B68002283F83C20002318461437BD46BE
:1057400080BC704780B483B000AF786000BF0C3776
:10575000BD4680BC704780B483B000AF786000BFA6
:105760000C37BD4680BC7047002B2DE9F0471F4623
:10577000BBBF03F100431F4600232D2388B014460E
:10578000129A109D1370149BDDF84CA023F0200892
:10579000B8F1460F05D0B8F1450F00D1013502230D
:1057A00000E0032307AA049206AACDE902A2CDE9EC
:1057B000003522463B4601F0A7F8B8F1470F0646F0
:1057C00002D1119BDB0722D5B8F1460F06EB050984
:1057D00010D13378302B0AD10022002320463946DD
:1057E000FBF7E2F818B9C5F10105CAF80050DAF87C
:1057F000003099440022002320463946FBF7D4F8B4
:1058000008B1CDF81C903022079B4B4507D330469A
:10581000079B159A9B1B136008B0BDE8F087591CC5
:1058200007911A70F0E70346F7B5002903F8022B39
:10583000B6BF2D222B224942092942702ADD0DF1E3
:10584000070217460A2691FBF6F5944606FB151447
:1058500030340CF8014C0C46632C294602F1FF321F
:10586000F1DC3031ACF1020402F8011C2246411C8B
:10587000BA420AD30DF10902A2EB0C02BC4288BF66
:1058800000221344181A03B0F0BD12F8015B01F8AE
:10589000015FEDE7302330318370C170031DF1E704
:1058A0002DE9F04F91B00C46DDF8688016461F4692
:1058B000054600F015FF036818460993FAF748FCFF
:1058C00000230E93D8F800300A90073323F0070323
:1058D00003F1080294F81890D4F800B0C8F800203A
:1058E000D3E900A852464346C4E9122328F00043F6
:1058F0000B934FF0FF3250469C4B0B99FBF786F809
:1059000070BB4FF0FF325046984B0B99FBF760F895
:1059100030BB0022002350464146FBF74FF810B140
:105920002D2384F84330924A924BB9F1470F94BF2C
:105930009046984603234FF0000A23612BF004039E
:10594000236033462146284600970FAA00F0D6F977
:10595000013040F090804FF0FF3011B0BDE8F08F83
:105960005246434650464146FBF750F848B1B8F11D
:10597000000FB8BF2D23804AB8BF84F843307F4B57
:10598000D3E7636809F0DF015A1C42D10623636044
:10599000002206920EAACDE904920DAA4BF4806370
:1059A00003920DF13302CDE9013223606368524660
:1059B0000093284643460B91FFF7D6FE0B9980468D
:1059C00047290D9908D1C81C02DB6368994240DD64
:1059D000A9F102095FFA89F9B9F1650F1FD84A46A2
:1059E000013904F150000D91FFF71DFF0E9A824618
:1059F0001318012A236102DC2268D20701D5013382
:105A000023619DF83330002B9BD02D2384F8433045
:105A100097E74729BCD1002BBAD10123B7E7B9F1E9
:105A2000660F18D1002963680BDD216113B9226864
:105A3000D00702D501330B4423614FF0000AA16562
:105A4000DFE713B92268D20701D50233F4E7012357
:105A5000F2E74FF067090E9B994205DB236821614D
:105A6000D807EAD54B1CE7E70029CCBF0122C1F1DA
:105A700002021344E0E723685A0507D4236942462B
:105A800031462846B84701302BD164E7B9F1650F9C
:105A900040F2DD80D4E9120100220023FAF784FFEE
:105AA000002833D0012331462846354AB847013013
:105AB0003FF451AFDDE90D239A4202DB2368D8079A
:105AC0000FD5DDE9092331462846B84701303FF4B8
:105AD00042AF4FF0000804F11A090E9B013B434509
